:020000040800F2
:10000000280A00206102000825370008692B000833
:1000100065320008590400086D4400080000000023
:10002000000000000000000000000000113900087E
:100030005D040008000000009537000869390008D9
:100040007B0200087B0200087B0200087B0200089C
:100050007B0200087B0200087B0200087B0200088C
:100060007B0200087B0200087B0200087B0200087C
:100070007B0200087B0200087B0200087B0200086C
:100080007B0200087B0200087B02000800000000E1
:100090000000000000000000000000007B020008DB
:1000A0007B0200087B0200087B0200087B0200083C
:1000B0007B0200087B0200087B0200087B0200082C
:1000C0007B0200087B0200087B0200087B0200081C
:1000D0007B0200087B0200087B0200080000000091
:1000E0007B0200087B0200087B0200080000000081
:1000F0000000000000000000000000007B0200087B
:10010000000000007B0200083D3A00087B02000866
:1001100000000000000000000000000000000000DF
:100120007B0200087B0200087B0200087B020008BB
:100130007B0200080000000000000000000000003A
:100140000000000000000000000000007B0200082A
:100150007B0200087B0200087B0200085D44000867
:100160007B0200087B020008000000000000000085
:10017000000000000000000000000000000000007F
:10018000000000007B0200080000000000000000EA
:100190007B02000800F002F800F052F814A696E87E
:1001A000000CB244B344DA4501D100F049F8BAE892
:1001B0000F000FA696E83000A5EB040504EB060738
:1001C000AAEB0704A7F101074FEA15154FEA34140B
:1001D000A4F10104AC4201D300F032F813F0010F96
:1001E00018BFFB1A43F0010300F001F8DBE71847E2
:1001F000A4460000C4460000103A24BF78C878C165
:10020000FAD8520724BF30C830C144BF04680C601C
:1002100070470000704700000023002400250026DE
:10022000103A28BF78C1FBD8520728BF30C148BF59
:100230000B6070471FB504F00EFB1FBD10B510BD5D
:1002400000F0D0F81146FFF7F5FF04F071F900F067
:10025000EEF803B4FFF7F2FF03BC00F0F5F800007E
:100260000948804709480047FEE7FEE7FEE7FEE74A
:10027000FEE7FEE7FEE7FEE7FEE7FEE70448054986
:10028000054A064B70470000293A0008950100080E
:1002900028040020280A0020280600202806002024
:1002A00053EA020C00F069802DE9F04B4FF0000694
:1002B000002B1FBFB3FA83F503FA05F424FA05F601
:1002C0005E4012BF1643B2FA82F502FA05F4C5F198
:1002D00020051EBF22FA05FC44EA0C04203556EA2C
:1002E000044C4FEA144418BF641C4FF000084FF050
:1002F0000009904271EB030C39D3002919BFB1FA00
:1003000081F701FA07F6B0FA80F700FA07F6C7F1AD
:1003100020071EBF20FA07FC46EA0C062037B6FB72
:10032000F4FCA7EB0507103F07F01F0BCBF12006ED
:100330002CFA06F60CFA0BFB44BFB3460026202F1E
:10034000A4BF5E464FF0000B5BEA060C08BF4FF0FF
:10035000010B19EB0B0948EB0608ABFB027C06FB13
:1003600002CC0BFB03CCC01B71EB0C01C1E70B46AD
:10037000024641464846BDE8F08B13B5084318BF16
:100380004FF0FF300146AFF30080BDE81C407047DE
:100390004FF0000200B5134694469646203922BF1E
:1003A000A0E80C50A0E80C50B1F12001BFF4F7AF69
:1003B000090728BFA0E80C5048BF0CC05DF804EB4B
:1003C000890028BF40F8042B08BF704748BF20F8B9
:1003D000022B11F0804F18BF00F8012B70477047B7
:1003E00070477047754600F02BF8AE460500694629
:1003F000534620F00700854618B020B5FFF73EFFB2
:10040000BDE820404FF000064FF000074FF0000815
:100410004FF0000BAC46ACE8C009ACE8C009ACE852
:10042000C009ACE8C00921F007018D46704710B53E
:100430000446AFF300802046BDE81040FFF709BF37
:10044000004870471000002001491820ABBEFEE7AD
:100450002600020070470000FFE7FEE7704700003B
:1004600072B6FFE7FEE7000080B584B00290029804
:10047000806D019000F090FA0090029890F835009D
:1004800002280DD0FFE7029980204865FFE7029916
:10049000002081F83400FFE701208DF80F0055E0BF
:1004A00002980168086820F0160008600298016848
:1004B000486920F0800048610298006C20B9FFE78D
:1004C0000298806C38B1FFE702980168086820F054
:1004D00008000860FFE702980168086820F0010042
:1004E0000860FFE7029800680068C007C8B1FFE72E
:1004F00000F052FA0099401A062811D3FFE702993A
:10050000202048650299032081F83500FFE7029911
:10051000002081F83400FFE703208DF80F0015E07C
:10052000E0E70298C16D3F208840019988600299F8
:10053000012081F83500FFE70299002081F834009E
:10054000FFE7FFE700208DF80F00FFE79DF80F00A1
:1005500004B080BD82B00090009890F83500022869
:1005600007D0FFE700998020486501208DF807003B
:100570000EE00099052081F83500009801680868B0
:1005800020F001000860FFE700208DF80700FFE77A
:100590009DF8070002B0704780B584B0039000F06A
:1005A000FBF90290039801900198013048B1FFE7F0
:1005B00040F20800C2F2000001780198084401905E
:1005C000FFE7FFE700F0E8F90299401A0199884235
:1005D00001D2FFE7F6E704B080BD00008BB00A90BF
:1005E000099100200790069005900890FFE7089871
:1005F0000F2800F2A281FFE70899012088400790A8
:10060000099800680799084006900698079988425B
:1006100040F08E81FFE70998406800F00300012850
:1006200007D0FFE70998406800F0030002282FD1A7
:10063000FFE70A988068059008984100032000FAB7
:1006400001F10598884305900998C0680899490008
:1006500000FA01F105980843059005980A99886009
:100660000A98406805900899012000FA01F1059860
:100670008843059009984068C0F30010089900FA73
:1006800001F105980843059005980A994860FFE72D
:100690000998406800F00300032818D0FFE70A9883
:1006A000C068059008984100032000FA01F1059800
:1006B00088430590099880680899490000FA01F17B
:1006C00005980843059005980A99C860FFE70998BE
:1006D000406800F00300022826D1FFE70A98089935
:1006E0006FF0030202EA51010844006A059008987D
:1006F00000F0070081000F2000FA01F105988843FF
:10070000059009980069089901F00701890000FA2D
:1007100001F105980843059005980A99089B02EA9B
:10072000530211440862FFE70A9800680590089890
:100730004100032000FA01F10598884305900998CB
:10074000406800F003000899490000FA01F105989B
:100750000843059005980A990860099880798007F0
:10076000002800F0E480FFE7FFE70020049043F654
:100770004400C4F20200016841F480410160006855
:1007800000F4804004900498FFE7089820F00300EC
:1007900043F60801C4F2010140580590089800F0A2
:1007A000030081000F2000FA01F1059888430590AD
:1007B0000A980021C4F20201884203D1FFE7002019
:1007C000039034E00A9840F20041C4F202018842EA
:1007D00003D1FFE70120029026E00A9840F60001CD
:1007E000C4F20201884203D1FFE70220019018E021
:1007F0000A9840F60041C4F20201884203D1FFE7A3
:10080000032000900AE00A9941F20002C4F20202B9
:100810000720914208BF04200090FFE70098019054
:10082000FFE701980290FFE702980390FFE7039823
:10083000C0B2089901F00301890000FA01F105989E
:10084000084305900598089921F0030143F6080232
:10085000C4F20102885043F60840C4F20100006867
:100860000590069905988843059009988079C006F7
:10087000002805D5FFE70699059808430590FFE78E
:10088000059843F60841C4F20101086043F60C40A4
:10089000C4F2010000680590069905988843059008
:1008A000099880798006002805D5FFE70699059804
:1008B00008430590FFE7059843F60C41C4F2010197
:1008C000086043F60440C4F20100006805900699F0
:1008D000059888430590099880798007002805D5F8
:1008E000FFE70699059808430590FFE7059843F64A
:1008F0000441C4F20101086043F60040C4F2010063
:1009000000680590069905988843059009988079B4
:10091000C00728B1FFE70699059808430590FFE74F
:10092000059843F60041C4F201010860FFE7FFE7C4
:10093000FFE708980130089059E60BB070470000B7
:1009400083B00290ADF80610029840690090009ABA
:10095000BDF8060002EA0001904340EA0140029916
:10096000886103B07047000082B00190ADF80210BA
:100970008DF801209DF8010028B1FFE7BDF80200C5
:100980000199886105E0BDF80200000401998861C1
:10099000FFE702B07047000040F22440C2F20000BE
:1009A0000068704740F20800C2F20000027840F28E
:1009B0002441C2F20001086810440860704700003A
:1009C00080B543F60041C4F20201086840F40070AB
:1009D0000860086840F480600860086840F480702F
:1009E0000860032000F08AF80F2000F005F800F0FE
:1009F0003BF8002080BD000080B582B0009040F23E
:100A00000000C2F20000006840F20801C2F20001DA
:100A10000A784FF47A71B1FBF2F1B0FBF1F000F01B
:100A2000A5FD20B1FFE701208DF8070018E0009830
:100A30000F280DD8FFE700994FF0FF30002200F09B
:100A400043F8009840F20C01C2F20001086003E094
:100A500001208DF8070003E000208DF80700FFE774
:100A60009DF8070002B080BD82B0FFE70020019032
:100A700043F64400C4F20200016841F48041016081
:100A8000006800F4804001900198FFE7FFE7002034
:100A9000009043F64000C4F20200016841F080512A
:100AA0000160006800F0805000900098FFE702B0FD
:100AB0007047000080B582B08DF807009DF90700EF
:100AC00003F0D6FC02B080BD80B586B08DF817006B
:100AD000049103920020029003F0E2FC02909DF941
:100AE0001700019002980499039A02F01DFE014636
:100AF000019803F0DDFC06B080BD000080B582B037
:100B00000190019803F0F6FC02B080BD80B584B07E
:100B100002900191029820B9FFE701208DF80F00A3
:100B200021E1019843F60041C4F20201096801F095
:100B30000701884212D9FFE7019943F60040C4F249
:100B400002000170006800F007000199884204D09B
:100B5000FFE701208DF80F0005E1FFE7029800781C
:100B6000800700282AD5FFE7029800784007002870
:100B700009D5FFE743F60801C4F20201086840F412
:100B8000E0500860FFE7029800780007002809D5C8
:100B9000FFE743F60801C4F20201086840F4604030
:100BA0000860FFE743F60801C4F20201086820F07C
:100BB000F000029A926810430860FFE702980078FC
:100BC000C00700286ED0FFE702984068012811D1C5
:100BD000FFE743F60000C4F20200006800F40031B1
:100BE0000020B0EB514F04D1FFE701208DF80F003A
:100BF000B9E02CE002984068022805D0FFE702988F
:100C00004068032811D1FFE743F60000C4F2020058
:100C1000006800F000710020B0EB516F04D1FFE7D5
:100C200001208DF80F009EE010E043F60000C4F2B2
:100C30000200006800F002010020B0EB510F04D167
:100C4000FFE701208DF80F008DE0FFE7FFE743F697
:100C50000801C4F20201086820F00300029A5268F9
:100C600010430860FFF798FE0090FFE743F6080086
:100C7000C4F20200006800F00C0002994968B0EB71
:100C8000810F0ED0FFE7FFF787FE0099401A41F26F
:100C90008931884204D3FFE703208DF80F0062E01A
:100CA000E4E7FFE7019843F60041C4F20201096856
:100CB00001F00701884212D2FFE7019943F6004094
:100CC000C4F202000170006800F007000199884238
:100CD00004D0FFE701208DF80F0044E0FFE7029801
:100CE0000078400700280CD5FFE743F60801C4F25E
:100CF0000201086820F4E050029AD26810430860AC
:100D0000FFE702980078000700280DD5FFE743F6BB
:100D10000801C4F20201086820F46040029A1269D6
:100D200040EAC2000860FFE700F04CF843F6080113
:100D3000C4F202010968C9B20A0944F67A01C0F690
:100D40000001895CC84040F20001C2F20001086065
:100D500040F20C00C2F200000068FFF74DFE0020D8
:100D60008DF80F00FFE79DF80F0004B080BD000074
:100D700040F20000C2F200000068704780B5FFF743
:100D8000F7FF43F60801C4F202010968C1F38222A9
:100D900044F68A01C0F60001895CC84080BD0000AD
:100DA00080B5FFF7E5FF43F60801C4F202010968C8
:100DB00089B24A0B44F68A01C0F60001895CC8403A
:100DC00080BD000080B586B000200590049003909F
:100DD000029043F60800C4F20200006800F00C0024
:100DE0000146019140B1FFE7019804280AD0FFE7CE
:100DF000019808280CD04FE042F20040C0F2F40005
:100E000002904FE041F20020C0F27A00029049E0E7
:100E100043F60400C4F20200016801F03F010591AD
:100E200000684002002813D5FFE743F60400C4F22F
:100E300002000068C0F3881041F20021C0F27A017C
:100E4000A0FB0101059A0023FFF72AFA049012E0A3
:100E500043F60400C4F202000068C0F3881042F2B6
:100E60000041C0F2F401A0FB0101059A0023FFF745
:100E700017FA0490FFE743F60400C4F2020000688A
:100E800000F44031022000EBD13003900498039924
:100E9000B0FBF1F0029005E042F20040C0F2F40035
:100EA0000290FFE7029806B080BD000080B586B0D2
:100EB0000490049820B9FFE701208DF8170050E353
:100EC00004980078C007002800F0A580FFE743F6EB
:100ED0000800C4F20200006800F00C00042813D0DF
:100EE000FFE743F60800C4F20200006800F00C00BF
:100EF00008281ED1FFE743F60400C4F20200006890
:100F00004002002815D5FFE743F60000C4F20200B6
:100F1000006800F400310020B0EB514F08D0FFE72B
:100F20000498406820B9FFE701208DF8170018E306
:100F300070E0FFE704984068B0F5803F09D1FFE713
:100F400043F60001C4F20201086840F480300860F2
:100F500020E004984068B0F5A02F0DD1FFE743F6DC
:100F60000001C4F20201086840F4802008600868AB
:100F700040F4803008600CE043F60001C4F2020146
:100F8000086820F480300860086820F48020086039
:100F9000FFE7FFE7FFE704984068E8B1FFE7FFF7E6
:100FA000FBFC0390FFE743F60000C4F20200006878
:100FB00000F400310020B0EB514F0CD1FFE7FFF7F8
:100FC000EBFC0399401A652804D3FFE703208DF852
:100FD0001700C6E2E7E71CE0FFF7DEFC0390FFE73F
:100FE00043F60000C4F20200006800F40031002063
:100FF000B0EB514F0CD0FFE7FFF7CEFC0399401A3E
:10100000652804D3FFE703208DF81700A9E2E7E77E
:10101000FFE7FFE7FFE7049800788007002840F12A
:101020009680FFE743F60800C4F20200006810F063
:101030000C0F13D0FFE743F60800C4F2020000686B
:1010400000F00C0008282CD1FFE743F60400C4F29E
:10105000020000684002002823D4FFE743F60000A6
:10106000C4F20200006800F002010020B0EB510F52
:1010700009D0FFE70498C068012804D0FFE70120E9
:101080008DF817006DE243F60001C4F20201086812
:1010900020F0F800049A126940EAC2000860FFE7F5
:1010A00054E00498C06870B3FFE70021C4F2472100
:1010B00001200860FFF770FC0390FFE743F6000093
:1010C000C4F20200006800F002010020B0EB510FF2
:1010D0000CD1FFE7FFF760FC0399401A032804D303
:1010E000FFE703208DF817003BE2E7E743F6000136
:1010F000C4F20201086820F0F800049A126940EA7C
:10110000C200086021E00021C4F2472100200860ED
:10111000FFF742FC0390FFE743F60000C4F2020031
:10112000006800F002010020B0EB510F0CD0FFE787
:10113000FFF732FC0399401A032804D3FFE703208A
:101140008DF817000DE2E7E7FFE7FFE7FFE70498F8
:101150000078000700284BD5FFE70498406918B3D2
:10116000FFE740F68061C4F2472101200860FFF7E5
:1011700013FC0390FFE743F67400C4F2020000681A
:1011800000F002010020B0EB510F0CD1FFE7FFF798
:1011900003FC0399401A032804D3FFE703208DF8CA
:1011A0001700DEE1E7E722E040F68061C4F2472164
:1011B00000200860FFF7F0FB0390FFE743F67400A0
:1011C000C4F20200006800F002010020B0EB510FF1
:1011D0000CD0FFE7FFF7E0FB0399401A032804D384
:1011E000FFE703208DF81700BBE1E7E7FFE7FFE724
:1011F000049800784007002840F1CE80FFE70020E7
:101200008DF8070043F64000C4F202000068C000F9
:10121000002815D4FFE7FFE70020009043F64000C8
:10122000C4F20200016841F080510160006800F0E2
:10123000805000900098FFE701208DF80700FFE73D
:1012400047F20000C4F200000068C005002822D464
:10125000FFE747F20001C4F20001086840F4807023
:101260000860FFF799FB0390FFE747F20000C4F224
:1012700000000068C00500280CD4FFE7FFF78CFBD6
:101280000399401A032804D3FFE703208DF81700C1
:1012900067E1EAE7FFE7FFE704988068012809D1E2
:1012A000FFE743F67001C4F20201086840F0010054
:1012B00008601FE00498806805280DD1FFE743F619
:1012C0007001C4F20201086840F004000860086878
:1012D00040F0010008600CE043F67001C4F2020126
:1012E000086820F001000860086820F00400086029
:1012F000FFE7FFE7FFE704988068F8B1FFE7FFF733
:101300004BFB0390FFE743F67000C4F20200006855
:1013100000F002010020B0EB510F0ED1FFE7FFF704
:101320003BFB0399401A41F28931884204D3FFE71D
:1013300003208DF8170014E1E5E71EE0FFF72CFB12
:101340000390FFE743F67000C4F20200006800F06B
:1013500002010020B0EB510F0ED0FFE7FFF71CFB9E
:101360000399401A41F28931884204D3FFE70320F0
:101370008DF81700F5E0E5E7FFE79DF80700012885
:1013800009D1FFE743F64001C4F20201086820F0EA
:1013900080500860FFE7FFE704988069002800F0AC
:1013A000DC80FFE743F60800C4F20200006800F0AA
:1013B0000C00082800F08580FFE704988069022867
:1013C0005CD1FFE76021C4F2472100200860FFF7ED
:1013D000E3FA0390FFE743F60000C4F2020000685E
:1013E00000F000710020B0EB516F0CD0FFE7FFF769
:1013F000D3FA0399401A032804D3FFE703208DF89A
:101400001700AEE0E7E70499C869D1F820C04B6A3D
:101410008A6A40EA0C0040EA8310D2034FF6FF7359
:101420009A43A2F580321043C96A40EA016043F64C
:101430000401C4F2020108606021C4F247210120C6
:101440000860FFF7A9FA0390FFE743F60000C4F233
:101450000200006800F000710020B0EB516F0CD169
:10146000FFE7FFF799FA0399401A032804D3FFE72F
:1014700003208DF8170074E0E7E721E06021C4F253
:10148000472100200860FFF787FA0390FFE743F643
:101490000000C4F20200006800F000710020B0EB10
:1014A000516F0CD0FFE7FFF777FA0399401A032832
:1014B00004D3FFE703208DF8170052E0E7E7FFE7CA
:1014C0004AE004988069012804D1FFE701208DF8E3
:1014D000170046E043F60400C4F2020000680290E0
:1014E00004988069012831D0FFE7029800F4800059
:1014F0000499C969884229D1FFE7029800F03F00AA
:101500000499096A884221D1FFE7029847F6C07121
:1015100008400499496AB0EB811F17D1FFE7029890
:1015200000F440300499896AC9034FF6FF72914371
:10153000A1F58031884209D1FFE7029800F0706080
:101540000499C96AB0EB016F04D0FFE701208DF860
:10155000170006E0FFE7FFE7FFE700208DF8170020
:10156000FFE79DF8170006B080BD000080B582B08F
:101570000190019802F0CEF902B080BD81B00090D8
:1015800001B0704781B0009001B0704785B0039002
:101590000291FFE7039890F83C00012804D1FFE78F
:1015A00002208DF813006CE00399012081F83C00C3
:1015B000FFE7FFE70399022081F83D0003980068E8
:1015C000406801900398006880680090019820F0BE
:1015D00070000190029801680198084301900198F9
:1015E000039909684860039800680021C4F201016A
:1015F00088422AD0FFE703980068B0F1804F24D0DA
:10160000FFE70398006840F20041C4F200018842FD
:101610001BD0FFE70398006840F60001C4F2000108
:10162000884212D0FFE70398006840F60041C4F2F8
:101630000001884209D0FFE70398006844F20001E6
:10164000C4F2010188420ED1FFE7009820F080002B
:101650000090029841680098084300900098039910
:1016600009688860FFE70399012081F83D00FFE7E2
:101670000399002081F83C00FFE700208DF813005B
:10168000FFE79DF8130005B07047000080B582B0F9
:101690000090009820B9FFE701208DF807003FE097
:1016A000009890F83D0040B9FFE70099002081F8CC
:1016B0003C00009800F038F8FFE70099022081F81C
:1016C0003D00009951F8040B02F0C0F90099012087
:1016D00081F84600FFE70099012081F83E0000995B
:1016E00081F83F00009981F84000009981F841009D
:1016F000FFE7FFE70099012081F84200009981F897
:101700004300009981F84400009981F84500FFE703
:101710000099012081F83D0000208DF80700FFE7C7
:101720009DF8070002B080BD80B584B00390039897
:10173000006840F60041C4F2000188421BD1FFE777
:10174000FFE70020029043F64000C4F20200016867
:1017500041F008010160006800F008000290029862
:10176000FFE73220019000221146FFF7ADF9019802
:10177000FFF7A0F9FFE704B080BD000083B001903F
:10178000019890F83D00012804D0FFE701208DF872
:101790000B0058E00199022081F83D000198016892
:1017A000C86840F00100C860019800680021C4F2D8
:1017B000010188422AD0FFE701980068B0F1804F0C
:1017C00024D0FFE70198006840F20041C4F2000114
:1017D00088421BD0FFE70198006840F60001C4F280
:1017E0000001884212D0FFE70198006840F60041EE
:1017F000C4F20001884209D0FFE70198006844F272
:101800000001C4F20101884212D1FFE7019800688B
:10181000806800F0070000900098062807D0FFE7D6
:1018200001980168086840F001000860FFE706E0E1
:1018300001980168086840F001000860FFE7002097
:101840008DF80B00FFE79DF80B0003B07047000018
:1018500080B586B00490039100208DF80B00FFE75F
:10186000049890F83C00012804D1FFE702208DF88D
:101870001700ABE00499012081F83C00FFE7FFE787
:101880000499022081F83D00049800688068019066
:10189000019820F077000190019820F47F4001909A
:1018A00001980499096888600398006800900028EE
:1018B00072D0FFE7009810286ED0FFE7009820282C
:1018C0006AD0FFE70098302866D0FFE700984028EC
:1018D00055D0FFE70098502837D0FFE700986028E0
:1018E00040D0FFE7009870280BD0FFE70098B0F5D4
:1018F000805F05D0FFE70098B0F5005F16D052E09A
:1019000055E004980068039B5A689968DB6802F008
:1019100061F90498006880680190019840F07700B0
:101920000190019804990968886040E00498006873
:10193000039B5A689968DB6802F04CF904980168C7
:10194000886840F48040886031E004980068039A19
:101950005168D26802F0F2FA04980068502102F04F
:1019600053F924E004980068039A5168D26802F0A1
:101970000DFB04980068602102F046F917E0049816
:101980000068039A5168D26802F0D8FA0498006897
:10199000402102F039F90AE00498006803990968C7
:1019A00002F032F903E001208DF80B00FFE7049903
:1019B000012081F83D00FFE70499002081F83C00F8
:1019C000FFE79DF80B008DF81700FFE79DF8170063
:1019D00006B080BD80B586B004900391049820B90C
:1019E000FFE701208DF8170088E0049890F83D008B
:1019F00040B9FFE70499002081F83C00049800F00A
:101A000081F8FFE70499022081F83D0004980168FD
:101A1000886844F2070290438860049951F8040BE7
:101A200002F014F804980068806802900498006836
:101A30008069019004980068006A0090039801682A
:101A4000029808430290019840F2033188430190C4
:101A500003998868896940EA012101980843019047
:101A6000019840F60C418843019001984FF2F00133
:101A7000884301900399C868C96940EA0121019827
:101A80000843019003990869096A000140EA01319D
:101A9000019808430190009820F0220000900098DF
:101AA00020F08800009003994868496940EA0111D4
:101AB000009808430090029804990968886001988A
:101AC0000499096888610098049909680862049972
:101AD000012081F84600049981F83E00049981F8BC
:101AE0003F00049981F84200049981F84300049969
:101AF00081F83D0000208DF81700FFE79DF81700E2
:101B000006B080BD80B594B0139000201290119063
:101B100010900F900E90139800680021C4F20101FC
:101B2000884233D1FFE7FFE700200D9043F64400E1
:101B3000C4F20200016841F001010160006800F098
:101B400001000D900D98FFE7FFE700200C9043F691
:101B50003000C4F20200016841F001010160006838
:101B600000F001000C900C98FFE74FF440700E90CD
:101B700002200F9000201090119001201290002060
:101B8000C4F202000EA9FEF729FDD6E01398006802
:101B9000B0F1804F59D1FFE7FFE700200B9043F6EB
:101BA0004000C4F20200016841F0010101600068D8
:101BB00000F001000B900B98FFE7FFE700200A9070
:101BC00043F63000C4F20200016841F001010160F7
:101BD000006800F001000A900A98FFE7FFE7002084
:101BE000099043F63000C4F20200016841F002019E
:101BF0000160006800F0020009900998FFE72020CA
:101C00000E90022001900F900020029010901190F1
:101C10000120039012900020C4F202000EA904914A
:101C2000FEF7DCFC019B029A039804994FF0080C24
:101C3000CDF838C00F9310921192129040F20040EC
:101C4000C4F20200FEF7CAFC76E01398006840F286
:101C50000041C4F20001884231D1FFE7FFE70020D4
:101C6000089043F64000C4F20200016841F002010E
:101C70000160006800F0020008900898FFE7FFE7A5
:101C80000020079043F63000C4F20200016841F0E2
:101C900001010160006800F0010007900798FFE76C
:101CA000C0200E9002200F900021109111911290EF
:101CB0000020C4F202000EA9FEF790FC3BE013984E
:101CC000006840F60001C4F20001884232D1FFE70B
:101CD000FFE70020069043F64000C4F202000168CE
:101CE00041F004010160006800F0040006900698CD
:101CF000FFE7FFE70020059043F63000C4F2020042
:101D0000016841F002010160006800F002000590E6
:101D10000598FFE7C0200E9002200F90002110913F
:101D20001191129040F20040C4F202000EA9FEF799
:101D300055FCFFE7FFE7FFE7FFE714B080BD0000B9
:101D400080B586B004900391049890F83E008DF819
:101D50000B00049890F83F008DF80A00049890F862
:101D600042008DF80900049890F843008DF80800AF
:101D70000398B8B9FFE79DF80B00012805D1FFE7EC
:101D80009DF80900012804D0FFE701208DF8170015
:101D900079E00499022081F83E00049981F842001C
:101DA000FFE742E00398042817D1FFE79DF80A00F7
:101DB000012805D1FFE79DF80800012804D0FFE7BE
:101DC00001208DF817005EE00499022081F83F00A1
:101DD000049981F84300FFE726E09DF80B000128F5
:101DE0000FD1FFE79DF80A0001280AD1FFE79DF80F
:101DF0000900012805D1FFE79DF80800012804D05B
:101E0000FFE701208DF817003DE00499022081F8DA
:101E10003E00049981F83F00049981F8420004993A
:101E200081F84300FFE7FFE7FFE70398019020B147
:101E3000FFE70198042807D00DE00498006800210E
:101E4000012201F0ABFE14E0049800680421012295
:101E500001F0A4FE0DE00498006800210122009228
:101E600001F09CFE009A04980068042101F096FE9F
:101E7000FFE704980168086840F00100086000204E
:101E80008DF81700FFE79DF8170006B080BD000031
:101E900081B0009001B0704780B584B00390039882
:101EA0000068C068029003980068006901909DF87E
:101EB00004008007002824D5FFE79DF8080080076C
:101EC00000281DD5FFE7039801686FF00200086144
:101ED000039901200877039800688069800720B182
:101EE000FFE70398FFF7D4FF06E0039800F016F928
:101EF000039800F00BFAFFE7039900200877FFE74B
:101F0000FFE79DF804004007002825D5FFE79DF86E
:101F10000800400700281ED5FFE7039801686FF00E
:101F2000040008610399022008770398006880691B
:101F300010F4407F04D0FFE70398FFF7A9FF06E005
:101F4000039800F0EBF8039800F0E0F9FFE703993D
:101F500000200877FFE7FFE79DF80400000700284E
:101F600024D5FFE79DF80800000700281DD5FFE7EE
:101F7000039801686FF0080008610399042008774E
:101F800003980068C069800720B1FFE70398FFF756
:101F90007FFF06E0039800F0C1F8039800F0B6F95F
:101FA000FFE7039900200877FFE7FFE79DF80400AB
:101FB000C006002825D5FFE79DF80800C0060028C8
:101FC0001ED5FFE7039801686FF0100008610399C0
:101FD0000820087703980068C06910F4407F04D097
:101FE000FFE70398FFF754FF06E0039800F096F828
:101FF000039800F08BF9FFE7039900200877FFE7CB
:10200000FFE79DF80400C00778B1FFE79DF80800DE
:10201000C00748B1FFE7039801686FF0010008614D
:10202000039800F037FAFFE7FFE79DF80400000689
:10203000002810D5FFE79DF808000006002809D504
:10204000FFE7039801686FF0800008610398FFF7CD
:1020500095FAFFE7FFE79DF804004006002810D539
:10206000FFE79DF808004006002809D5FFE7039820
:1020700001686FF040000861039800F039FAFFE74B
:10208000FFE79DF804008006002810D5FFE79DF8C3
:1020900008008006002809D5FFE7039801686FF063
:1020A000200008610398FFF76DFAFFE7FFE704B02F
:1020B00080BD000080B588B0079000200690059094
:1020C0000490039002900798006840F60041C4F223
:1020D0000001884220D1FFE7FFE70020019043F68E
:1020E0003000C4F20200016841F0010101600068A3
:1020F00000F0010001900198FFE70F2002900220FC
:10210000039000210491059106900020C4F2020082
:1021100002A9FEF763FAFFE708B080BD81B0009026
:1021200001B0704780B586B0049003910292002000
:102130008DF80700FFE7049890F83C00012804D1CF
:10214000FFE702208DF8170089E00499012081F84B
:102150003C00FFE7FFE7029800900C2800F2708037
:102160000099DFE801F0076D6D6D206D6D6D3A6DC2
:102170006D6D530004980068039901F05BFD0498AD
:102180000168886940F008008861049801688869DE
:1021900020F0040088610398026904980168886946
:1021A0001043886150E004980068039901F0A8FD8D
:1021B00004980168886940F40060886104980168A7
:1021C000886920F480608861039802690498016836
:1021D000886940EA0220886136E004980068039923
:1021E00001F0F8FD04980168C86940F00800C86172
:1021F00004980168C86920F00400C8610398026966
:1022000004980168C8691043C8611DE0049800681B
:10221000039901F049FE04980168C86940F4006020
:10222000C86104980168C86920F48060C861039897
:10223000026904980168C86940EA0220C86103E0A5
:1022400001208DF80700FFE7FFE70499002081F8DF
:102250003C00FFE79DF807008DF81700FFE79DF8A9
:10226000170006B080BD000080B582B000900098D5
:1022700020B9FFE701208DF807003FE0009890F8B3
:102280003D0040B9FFE70099002081F83C0000982C
:1022900000F038F8FFE70099022081F83D0000992E
:1022A00051F8040B01F0D2FB0099012081F846009F
:1022B000FFE70099012081F83E00009981F83F0076
:1022C000009981F84000009981F84100FFE7FFE79D
:1022D0000099012081F84200009981F8430000999B
:1022E00081F84400009981F84500FFE7009901203A
:1022F00081F83D0000208DF80700FFE79DF80700FA
:1023000002B080BD81B0009001B0704781B00090F4
:1023100001B0704780B58AB008900791079828B936
:10232000FFE7089890F83E0005901CE00798042805
:1023300005D1FFE7089890F83F00049010E0079857
:10234000082805D1FFE7089890F84000039004E0C2
:10235000089890F841000390FFE703980490FFE786
:1023600004980590FFE70598012804D0FFE70120B5
:102370008DF827008AE0079828B9FFE7089902201E
:1023800081F83E001EE00798042806D1FFE708996F
:10239000022081F83F00029012E00798082806D139
:1023A000FFE70899022081F84000019005E00899B4
:1023B000022081F841000190FFE701980290FFE7B9
:1023C0000298FFE7089800680799012201F0E6FBF0
:1023D000089800680021C4F20101884207D1FFE794
:1023E00008980168486C40F400404864FFE708988A
:1023F00000680021C4F2010188422AD0FFE7089852
:102400000068B0F1804F24D0FFE70898006840F2E0
:102410000041C4F2000188421BD0FFE70898006821
:1024200040F60001C4F20001884212D0FFE708988C
:10243000006840F60041C4F20001884209D0FFE77D
:102440000898006844F20001C4F20101884212D1E8
:10245000FFE708980068806800F00700069006987B
:10246000062807D0FFE708980168086840F00100D7
:102470000860FFE706E008980168086840F001007E
:102480000860FFE700208DF82700FFE79DF8270090
:102490000AB080BD80B584B0039040F27000C2F2F3
:1024A0000000016801310160006864281DD1FFE768
:1024B00040F20040C4F20200009004210191012288
:1024C000FEF752FA40F27400C2F2000000F0F4FD90
:1024D0000098019900220292FEF746FA029840F213
:1024E0007001C2F200010860FFE704B080BD000087
:1024F00081B0009001B0704780B586B00490039120
:10250000ADF80A20049890F8420020284DD1FFE74A
:10251000039820B1FFE7BDF80A0020B9FFE70120CA
:102520008DF8170045E00499012008630499002004
:10253000486304980399BDF80A2001F013FF8DF851
:1025400009009DF8090058BBFFE70498006B0128BB
:1025500021D1FFE7FFE700200190049800680068A0
:10256000019004980068406801900198FFE7FFE738
:10257000FFE70498006850E8030F40F01000009057
:10258000FFE700990498026842E803100028F0D1A0
:10259000FFE7FFE703E001208DF80900FFE7FFE711
:1025A0009DF809008DF8170003E002208DF8170050
:1025B000FFE79DF8170006B080BD000080B582B02F
:1025C0000190ADF8021040F2DC30C2F2000040F29F
:1025D0001021C2F200010322FFF78EFF02B080BD7E
:1025E00081B0009001B0704780B592B01190119801
:1025F00000680068109011980068C0680F901198EA
:10260000006840690E9000200D900C90109800F02A
:102610000F000D900D9888B9FFE79DF840008006E7
:1026200000280AD5FFE79DF83C008006002804D565
:10263000FFE7119801F042FDEAE1FFE70D9800285D
:1026400000F0C280FFE79DF83800C00738B9FFE707
:10265000BDF83C0010F4907F00F0B680FFE79DF8D5
:102660004000C00758B1FFE79DF83D00C00730B1FA
:10267000FFE71199486C40F001004864FFE79DF8BE
:102680004000400700280BD5FFE79DF83800C00741
:1026900030B1FFE71199486C40F002004864FFE751
:1026A0009DF84000800700280BD5FFE79DF8380013
:1026B000C00730B1FFE71199486C40F0040048644E
:1026C000FFE79DF840000007002811D5FFE79DF8BF
:1026D0003C008006002805D4FFE79DF83800C007BD
:1026E00030B1FFE71199486C40F008004864FFE7FB
:1026F0001198406C002866D0FFE79DF840008006E6
:1027000000280AD5FFE79DF83C008006002804D584
:10271000FFE7119801F0D2FCFFE7119800684069CB
:10272000C0F380100C901198406C0007002804D46E
:10273000FFE70C9800283ED0FFE7119801F060FCFD
:10274000119800684069400600282FD5FFE7FFE791
:10275000FFE71198006850E8050F20F040000B904B
:10276000FFE70B991198026842E805100028F0D1A4
:10277000FFE7FFE71198C06B98B1FFE71198C16BB5
:1027800043F6E170C0F6000008651198C06BFDF7D4
:10279000E1FE28B1FFE71198C06B016D8847FFE7A4
:1027A00003E01198FFF71CFFFFE703E01198FFF724
:1027B00017FFFFE706E01198FFF712FF11990020BD
:1027C0004864FFE7FFE723E11198006B012840F020
:1027D000FF80FFE79DF84000C006002840F1F88028
:1027E000FFE79DF83C00C006002840F1F180FFE7BC
:1027F000FFE700200A901198006800680A9011987D
:10280000006840680A900A98FFE7119800684069DC
:102810004006002840F18280FFE71198C06B0068F5
:102820004068ADF82600BDF82600002875D0FFE707
:10283000BDF826001199898D88426EDAFFE7BDF850
:1028400026001199C8851198C06BC069B0F5807FCA
:1028500058D0FFE7FFE7FFE71198006850E8030F43
:1028600020F480700890FFE708991198026842E808
:1028700003100028F0D1FFE7FFE7FFE7FFE711981B
:10288000006850E8050F20F001000790FFE7079966
:102890001198026842E805100028F0D1FFE7FFE731
:1028A000FFE7FFE71198006850E8050F20F04000AF
:1028B0000690FFE706991198026842E80510002883
:1028C000F0D1FFE7FFE71199202081F8420011992C
:1028D00000200863FFE7FFE71198006850E8030F46
:1028E00020F010000590FFE705991198026842E872
:1028F00003100028F0D1FFE7FFE71198C06BFDF748
:10290000B3FDFFE71199022048631198818DC28DB4
:10291000891A89B2FFF752FEFFE779E01199888D95
:10292000C98D401AADF812001198C08D00284ED004
:10293000FFE7BDF81200002849D0FFE7FFE7FFE7F7
:102940001198006850E8030F20F490700390FFE79F
:1029500003991198026842E803100028F0D1FFE7BC
:10296000FFE7FFE7FFE71198006850E8050F20F048
:1029700001000290FFE702991198026842E80510F1
:102980000028F0D1FFE7FFE71199202081F84200ED
:10299000119900200863FFE7FFE71198006850E8ED
:1029A000030F20F010000190FFE7019911980268D1
:1029B00042E803100028F0D1FFE7FFE71199022059
:1029C00048631198BDF81210FFF7F8FDFFE71FE00C
:1029D0009DF84000000600280AD5FFE79DF83C005E
:1029E0000006002804D5FFE7119801F0EDFC0FE088
:1029F0009DF84000400600280AD5FFE79DF83C00FE
:102A00004006002804D5FFE7119801F043FBFFE7DB
:102A100012B080BD80B582B00090009820B9FFE769
:102A200001208DF8070040E00098806908B1FFE7B9
:102A300000E0FFE7009890F8410040B9FFE70099F7
:102A4000002081F84000009800F034F8FFE700997A
:102A5000242081F8410000980168C86820F40050E3
:102A6000C860009801F0E0FB00980168086920F454
:102A70009040086100980168486920F02A00486188
:102A800000980168C86840F40050C86000990020B0
:102A90004864009A202182F84110009A82F842107E
:102AA000009948638DF80700FFE79DF8070002B022
:102AB00080BD000080B58AB0099000200890079082
:102AC0000690059004900998006841F20041C4F214
:102AD000010188423ED1FFE7FFE70020039043F663
:102AE0004400C4F20200016841F020010160006866
:102AF00000F0200003900398FFE7FFE7002002901A
:102B000043F63000C4F20200016841F004010160A4
:102B1000006800F0040002900298FFE7C0200490D3
:102B200002200590002000900690032007900820C6
:102B3000089040F60000C4F2020004A9FDF74EFD23
:102B4000009A472001901146FDF7BEFF0198FDF75E
:102B5000B1FFFFE70AB080BD81B0009001B07047BF
:102B600081B0009001B07047FFE7FEE780B594B0F8
:102B7000002013901290119010900F90FFE700200A
:102B80000E9043F63000C4F20200016841F080016B
:102B90000160006800F080000E900E98FFE7FFE7EC
:102BA00000200D9043F63000C4F20200016841F0AD
:102BB00004010160006800F004000D900D98FFE72B
:102BC000FFE700200C9043F63000C4F202000168D9
:102BD00041F001010160006800F001000C900C98C8
:102BE000FFE7FFE700200B9043F63000C4F202003D
:102BF000016841F002010160006800F002000B90E2
:102C00000B98FFE7FFE700200A9043F63000C4F27C
:102C10000200016841F008010160006800F008004E
:102C20000A900A98FFE740F60000C4F20200019003
:102C300041F63341009100220792FDF795FE079A75
:102C400040F20040C4F20200029040F23551FDF71C
:102C50008BFE079A0020C4F2020004904FF4084152
:102C60000391FDF781FE079A40F60040C4F202008E
:102C7000089004210591FDF777FE009A01980799C5
:102C80000F92012206921092119112910FA90991AF
:102C9000FDF7A4FC0298069B079A099940F2351C9F
:102CA000CDF83CC0109311921292FDF797FC029858
:102CB000069B079A09994FF4806CCDF83CC010939D
:102CC000119203221292FDF789FCDDF80CC00498E2
:102CD000069B079A0999CDF83CC010931192129265
:102CE000FDF77CFCDDF814C0069B079A089809994B
:102CF000CDF83CC0109311921292FDF76FFC14B006
:102D000080BD000080B58EB005A800902421FDF79D
:102D10003FFB0099002201920492039240F274203A
:102D2000C2F2000002900023C4F20103036042607B
:102D300082604FF6FF73C3600261426182610323C8
:102D40000593069201230793089209920A920B9326
:102D50000C920D92FEF73EFE18B1FFE7FDF780FBE7
:102D6000FFE700200390049040F27420C2F20000BC
:102D700003A9FEF70BFC18B1FFE7FDF771FBFFE7B6
:102D80000EB080BD80B58EB005A801902421FDF75E
:102D9000FFFA0199002202920492039240F2BC20B1
:102DA000C2F200004FF080430360426082604FF047
:102DB000FF33C360026182610323059306920123FE
:102DC0000793089209920A920B930C920D92FEF7C8
:102DD00001FE18B1FFE7FDF743FBFFE7002003907A
:102DE000049040F2BC20C2F2000003A9FEF7CEFB23
:102DF00018B1FFE7FDF734FBFFE70EB080BD000020
:102E000080B58EB005A801902421FDF7C1FA019983
:102E1000002202920492039240F20430C2F20000B7
:102E200040F20043C4F200030360426082604FF648
:102E3000FF73C3600261826103230593069201233D
:102E40000793089209920A920B930C920D92FEF747
:102E5000C1FD18B1FFE7FDF703FBFFE7002003907A
:102E6000049040F20430C2F2000003A9FEF78EFB8A
:102E700018B1FFE7FDF7F4FAFFE70EB080BD0000E0
:102E800080B58EB005A801902421FDF781FA019943
:102E9000002202920492039240F24C30C2F20000EF
:102EA00040F60003C4F200030360426082604FF604
:102EB000FF73C360026182610323059306920123BD
:102EC0000793089209920A920B930C920D92FEF7C7
:102ED00081FD18B1FFE7FDF7C3FAFFE7002003907B
:102EE000049040F24C30C2F2000003A9FEF74EFB02
:102EF00018B1FFE7FDF7B4FAFFE70EB080BD0000A0
:102F000080B58EB0002100910D910C910B910A912A
:102F100009910891079106910591049103910291FD
:102F2000019140F29430C2F2000040F60042C4F237
:102F3000000202604160816042F2CF02C260016122
:102F400080218161FEF7A2FB18B1FFE7FDF788FA47
:102F5000FFE74FF480500A9040F29430C2F2000034
:102F60000AA9FEF775FC18B1FFE7FDF779FAFFE74C
:102F700040F29430C2F20000FFF776F918B1FFE793
:102F8000FDF76EFAFFE700200890099040F29430B8
:102F9000C2F2000008A9FEF7F9FA18B1FFE7FDF741
:102FA0005FFAFFE7602001904FF4FA500290002290
:102FB0000392059240F29430C2F2000001A9FFF79B
:102FC000B1F818B1FFE7FDF74BFAFFE740F2943094
:102FD000C2F2000001A90422FFF7A4F818B1FFE72C
:102FE000FDF73EFAFFE740F29430C2F2000001A97B
:102FF0000822FFF797F818B1FFE7FDF731FAFFE76E
:1030000040F29430C2F2000001A90C22FFF78AF8C6
:1030100018B1FFE7FDF724FAFFE740F29430C2F25F
:103020000000FFF747F80EB080BD000080B582B009
:1030300040F2DC30C2F20000019041F20041C4F2E3
:10304000010101604FF4E131416000218160C16004
:1030500001610C2242618161C161FFF7DBFC18B1A3
:10306000FFE7FDF7FDF9FFE702B080BD80B582B054
:10307000019000F08DFA019940F29000C2F2000038
:103080000860019940F2F000C2F200004860019926
:1030900040F25010C2F200008860019940F2B01076
:1030A000C2F20000C860019900200861019988619E
:1030B0000199486102B080BD80B586B00590059940
:1030C00008694A698969801A401A00EE100AB8EE48
:1030D000C00A8DED040A059908694A698969104496
:1030E000084400EE100AB8EEC00A8DED030A0599F7
:1030F00008694A698969801A084400EE100AB8EE26
:10310000C00A8DED020A059908694A698969104467
:10311000401A00EE100AB8EEC00A8DED010A0498BC
:1031200000909DED000A9DED031AB4EE410AF1EE08
:1031300010FA03DAFFE703980090FFE79DED000A1D
:103140009DED021AB4EE410AF1EE10FA03DAFFE740
:1031500002980090FFE79DED000A9DED011AB4EE84
:10316000410AF1EE10FA03DAFFE701980090FFE759
:103170009DED000A40F20400C2F2000090ED001A3A
:10318000B4EE410AF1EE10FA35DDFFE79DED040AD9
:103190009DED001A80EE010A40F20400C2F2000028
:1031A00090ED001A20EE010A8DED040A9DED030A50
:1031B0009DED001A80EE010A90ED001A20EE010A42
:1031C0008DED030A9DED020A9DED001A80EE010AC5
:1031D00090ED001A20EE010A8DED020A9DED010A24
:1031E0009DED001A80EE010A90ED001A20EE010A12
:1031F0008DED010AFFE79DED040A05980068BDEE1C
:10320000C00A80ED0D0A9DED010AB1EE400A059855
:103210004068BDEEC00A80ED0D0A9DED030AB1EED7
:10322000400A05988068BDEEC00A80ED0D0A9DED4C
:10323000020A0598C068BDEEC00A80ED0D0A059827
:10324000006800F05DF90598406800F059F90598AC
:10325000806800F055F90598C06800F051F906B093
:1032600080BD0000FFE7FEE780B582B040F200407D
:10327000C4F2020001904FF480710122FDF774FB4B
:10328000019820210022FDF76FFB02B080BD0000F5
:1032900080B582B040F20040C4F2020001904FF4C9
:1032A00080710022FDF760FB019820210122FDF7CB
:1032B0005BFB02B080BD000080B540F60040C4F268
:1032C000020004210022FDF74FFB40F60000C4F28B
:1032D00002004FF480510122FDF746FB80BD000043
:1032E00080B540F60040C4F2020004210122FDF73F
:1032F0003BFB40F60000C4F202004FF48051002274
:10330000FDF732FB80BD000080B540F20040C4F202
:10331000020010210122FDF727FB40F60000C4F255
:1033200002004FF400610022FDF71EFB80BD00008B
:1033300080B540F20040C4F2020010210022FDF7E7
:1033400013FB40F60000C4F202004FF400610122BA
:10335000FDF70AFB80BD000080B540F60000C4F216
:1033600002004FF480610022FDF7FEFA0020C4F253
:1033700002004FF400410122FDF7F6FA80BD000083
:1033800080B540F60000C4F202004FF480610122D3
:10339000FDF7EAFA0020C4F202004FF400410022D7
:1033A000FDF7E2FA80BD000085B004908DED030AC0
:1033B0000498006D006890ED0B0AB8EE400A9DED90
:1033C000031A20EE010ABDEEC00A8DED020A049830
:1033D000406D30B9FFE702980499096D09684863A8
:1033E00023E00498406D042807D1FFE70298049970
:1033F000096D09688863019015E00498406D0828FC
:1034000007D1FFE702980499096D0968C863009025
:1034100006E002980499096D096808640090FFE7C6
:1034200000980190FFE70198FFE705B070470000A2
:1034300082B001900199886BC8630198C06C0068E4
:10344000406A019948640198806CB0B9FFE701991E
:10345000086C496C884209DAFFE70199086C4A6CEC
:10346000801A4FF6FF721044886305E00199086CDA
:103470004A6C801A8863FFE715E00199086C496C73
:10348000884209DDFFE701990A6C486C801A4FF603
:10349000FF721044886305E001990A6C486C801A39
:1034A0008863FFE7FFE70199486C08640198806B27
:1034B0004EF66121884204DBFFE70198C06B009063
:1034C00003E00198806B0090FFE700980199886302
:1034D00002B0704780B582B001900198C06C3C2169
:1034E000FEF72EFC0199086D496DFEF713FF019858
:1034F000C06D804701990120886402B080BD000042
:1035000080B584B003900398406BB0F1FF3F07DCB7
:10351000FFE70398806D804703990020886406E0E8
:103520000398C06D8047039901208864FFE70398E2
:103530000190406B01F0B3F841EC100B9FED121BB2
:1035400050EC111BC20F51EC100B62F3DF7141EC18
:10355000100B51EC100B01F071F8019908620398FF
:10356000FFF766FF039890ED0E0AB8EEC00A00F070
:1035700013F98DED020A03989DED020AFFF714FF7F
:1035800004B080BD00BF00BF0000000000000000CC
:1035900080B58CB040F29000C2F20000009043F27F
:1035A0006921C0F60001816543F29121C0F6000156
:1035B000C16540F29431C2F200010391016540F20D
:1035C000BC21C2F20001C1640821416501210491BE
:1035D00081649FED510A8DED050ADFED500ACDEDB6
:1035E000060A9FED4F1A8DED071A00F075F9009845
:1035F0004FF07E51089141620021099181620021C2
:10360000C4F2C8210A91C162FFF764FF039A0499CA
:103610009DED050ADDED060A9DED071A40F2F0006A
:10362000C2F20000019043F2B923C0F600038365A3
:1036300043F2E123C0F60003C365026540F24C3259
:10364000C2F20002C26404224265816400F044F9BF
:103650000198089B099A0A9943628262C162FFF746
:1036600039FF039B04999DED050ADDED060A9DEDEA
:10367000071A099A40F25010C2F20000029043F279
:10368000093CC0F6000CC0F858C043F2313CC0F60B
:10369000000CC0F85CC0036540F27423C2F2000362
:1036A000C3644265816400F017F90298089B099A87
:1036B0000A9943628262C162FFF70CFF039A049980
:1036C0009DED050ADDED060A9DED071A40F2B010EA
:1036D000C2F200000B9043F25933C0F60003836539
:1036E00043F28133C0F60003C365026540F2043241
:1036F000C2F20002C2640C224265816400F0ECF860
:10370000089B099A0A990B9843628262C162FFF78B
:10371000E1FE0CB080BD00BF9A99993ECDCC4C3DE6
:1037200000000000FFE7FEE788B0079006910592D1
:10373000079800F0070004900498C0F107000528DE
:1037400003D3FFE70420019004E00498C0F10700D0
:103750000190FFE70198039004980430062803D8ED
:10376000FFE70020009003E0049803380090FFE793
:103770000098029006980399012202FA01F101399A
:103780000840029B984005999A40013A114008432D
:1037900008B070477047000080B584B002908DED8E
:1037A000010A029890ED080A9DED011A30EE410AD7
:1037B00080ED050A029890ED040A90ED051A30EEAE
:1037C000010A80ED040A0298009090ED050A90ED40
:1037D000061A30EE410A10EE100A00F0CBFF41EC61
:1037E000100B9FED3B1B50EC111BC20F51EC100B4B
:1037F00062F3DF7141EC100B51EC100B00F01EFF77
:103800000099C860029890ED054A90ED045A90ED39
:10381000000A90ED013A90ED022A90ED031A23EE92
:10382000053A20EE040A30EE030A21EE021A30EEC9
:10383000410A80ED070A029948698861029890ED73
:10384000040A90ED0B1AB4EE410AF1EE10FA04DD11
:10385000FFE70299C86A0861FFE7029890ED040A41
:1038600090ED0B1AB1EE411AB4EE410AF1EE10FAE6
:1038700008DAFFE7029890ED0B0AB1EE400A80EDFE
:10388000040AFFE7029890ED070A90ED091AB4EEDA
:10389000410AF1EE10FA04DDFFE70298406A039056
:1038A00012E0029890ED070A90ED0A1AB4EE410A70
:1038B000F1EE10FA04DAFFE70298806A039003E061
:1038C0000298C0690390FFE79DED030A04B080BD34
:1038D000000000000000000084B003908DED020A9B
:1038E000CDED010A8DED001A03990020486103997E
:1038F00008610399C8600399886102980399086078
:1039000001980399486000980399886004B0704753
:103910007047000080B582B0009000980138B0F187
:10392000807F03D3FFE70120019019E00098013860
:103930004EF21401CEF2000108604FF0FF300F216B
:1039400000F0B6FD4EF21801CEF200010020086032
:103950004EF21002CEF20002072111600190FFE743
:10396000019802B080BD000080B5FDF71BF880BD56
:1039700080B594B008A83021FCF70AFD002007901C
:103980000690059004900390FFE70020029043F614
:103990004000C4F20200016841F0805101600068FB
:1039A00000F0805002900298FFE7FFE700200190AE
:1039B00047F20000C4F200000168022262F38F3176
:1039C0000160006800F4404001900198FFE7012089
:1039D00008904FF48030099002210E914FF480003E
:1039E0000F9004201090542211921291139008A865
:1039F000FDF75CFA18B1FFE7FCF732FDFFE70F2097
:103A0000039002210491002005904FF48052069209
:103A1000079003A8FDF77AF818B1FFE7FCF720FD3F
:103A2000FFE714B080BD00004EF68851CEF20001D1
:103A3000086840F4700008607047000080B540F2EC
:103A40009430C2F20000FEF727FA80BD83B00290E6
:103A5000019102980068009002980021C4F20101CF
:103A600088421DD0FFE70298B0F1804F18D0FFE7E1
:103A7000029840F20041C4F20001884210D0FFE7F2
:103A8000029840F60001C4F20001884208D0FFE726
:103A9000029840F60041C4F2000188420AD1FFE7D3
:103AA000009820F070000090019841680098084349
:103AB0000090FFE702980021C4F20101884235D04E
:103AC000FFE70298B0F1804F30D0FFE7029840F254
:103AD0000041C4F20001884228D0FFE7029840F676
:103AE0000001C4F20001884220D0FFE7029840F6AE
:103AF0000041C4F20001884218D0FFE7029844F266
:103B00000001C4F20101884210D0FFE7029844F29C
:103B10000041C4F20101884208D0FFE7029844F650
:103B20000001C4F2010188420AD1FFE7009820F4A5
:103B3000407000900198C168009808430090FFE72A
:103B4000009820F08000019949690843009000988E
:103B500002990860019880680299C862019800681B
:103B60000299886202980021C4F20101884205D1BD
:103B7000FFE70198006902990863FFE702990120B5
:103B8000486102980069C00730B1FFE702990869EF
:103B900020F001000861FFE703B0704784B0039094
:103BA00002910192029800F01F01012088400090CC
:103BB000009A0399086A904308620198029901F0FB
:103BC0001F0100FA01F20399086A1043086204B069
:103BD0007047000085B0049003910292019304980D
:103BE00080680090009820F47F400090039802992C
:103BF000019A41EA0221014300980843009000988D
:103C00000499886005B0704783B0029001910298D2
:103C100080680090009820F0700000900198009952
:103C2000084340F00700009000980299886003B0B4
:103C30007047000085B0049003910498006A0190D9
:103C40000499086A20F00100086204984068009016
:103C5000049880690290029820F070000290029807
:103C600020F0030002900398016802980843029034
:103C7000019820F0020001900398816801980843A0
:103C8000019004980021C4F2010188420ED1FFE79F
:103C9000019820F0080001900398C168019808433A
:103CA0000190019820F004000190FFE704980021A2
:103CB000C4F20101884213D1FFE7009820F480701C
:103CC0000090009820F400700090039841690098DB
:103CD0000843009003988169009808430090FFE72B
:103CE0000098049948600298049988610398406894
:103CF0000499486301980499086205B07047000070
:103D000085B0049003910498006A01900499086AB0
:103D100020F01000086204984068009004988069C0
:103D20000290029820F4E0400290029820F4407043
:103D3000029003980168029840EA012002900198DD
:103D400020F02000019003988168019840EA01105A
:103D5000019004980021C4F2010188420FD1FFE7CD
:103D6000019820F0800001900398C168019840EA12
:103D700001100190019820F040000190FFE70498A5
:103D80000021C4F20101884215D1FFE7009820F418
:103D900080600090009820F40060009003984169D2
:103DA000009840EA8100009003988169009840EAF9
:103DB00081000090FFE700980499486002980499F8
:103DC000886103984068049988630198049908629F
:103DD00005B0704785B0049003910498006A019083
:103DE0000499086A20F48070086204984068009082
:103DF0000498C0690290029820F070000290029826
:103E000020F0030002900398016802980843029092
:103E1000019820F40070019003988168019840EAAD
:103E20000120019004980021C4F2010188420FD1C1
:103E3000FFE7019820F4006001900398C1680198A1
:103E400040EA01200190019820F480600190FFE792
:103E500004980021C4F20101884215D1FFE70098BF
:103E600020F480500090009820F4005000900398B7
:103E70004169009840EA0110009003988169009818
:103E800040EA01100090FFE700980499486002980A
:103E90000499C861039840680499C863019804991B
:103EA000086205B07047000085B004900391049843
:103EB000006A01900499086A20F48050086204980E
:103EC000406800900498C0690290029820F4E04095
:103ED0000290029820F440700290039801680298C2
:103EE00040EA01200290019820F4005001900398CC
:103EF0008168019840EA0130019004980021C4F2E1
:103F0000010188420BD1FFE7009820F48040009027
:103F100003984169009840EA81100090FFE70098FB
:103F20000499486002980499C8610398406804990C
:103F3000086401980499086205B0704785B0049040
:103F4000039102920498006A00900499086A20F094
:103F500001000862049880690190019820F0F00047
:103F600001900299019840EA01100190009820F018
:103F70000A00009003990098084300900198049962
:103F8000886100980499086205B0704785B0049074
:103F9000039102920498006A00900499086A20F044
:103FA00010000862049880690190019820F4704024
:103FB00001900299019840EA01300190009820F0A8
:103FC000A00000900399009840EA01100090019829
:103FD0000499886100980499086205B07047000050
:103FE00080B582B001900198806B0090009900200C
:103FF000C8850099C8840098FEF7F2FA02B080BD27
:1040000084B00390FFE7FFE70398006850E8030FD0
:1040100020F490700290FFE702990398026842E84A
:1040200003100028F0D1FFE7FFE7FFE7FFE7039861
:10403000006850E8050F20F001000190FFE70199AA
:104040000398026842E805100028F0D1FFE7FFE777
:104050000398006B012814D1FFE7FFE7FFE70398FF
:10406000006850E8030F20F010000090FFE700996F
:104070000398026842E803100028F0D1FFE7FFE749
:10408000FFE70399202081F842000399002008638C
:1040900004B0704780B582B0019001980168C8688B
:1040A00020F04000C8600199202081F8410001986B
:1040B000FEF756FD002002B080BD000080B586B03E
:1040C0000490049890F84200222840F0A480FFE772
:1040D00004988068B0F5805F15D1FFE70498006907
:1040E00088B9FFE7002003900498806A0290049842
:1040F000006840686FF35F20029908800499886A1D
:104100000230886225E00498806A039000200290C3
:1041100004988068B0F5805F08D0FFE70498806855
:1041200050B9FFE70498006930B9FFE704980068C8
:1041300040680399087007E004980068406800F040
:104140007F0003990870FFE70499886A013088624C
:10415000FFE70499C88D0138C8850004002856D1AE
:10416000FFE704980168C86820F02000C860049840
:104170000168C86820F48070C860049801684869C4
:1041800020F0010048610499202081F84200049940
:10419000002048630498006B012830D1FFE70499A0
:1041A00000200863FFE7FFE70498006850E8030F6A
:1041B00020F010000190FFE701990498026842E89E
:1041C00003100028F0D1FFE7FFE7049800680068BB
:1041D000C00600280ED5FFE7FFE7002000900498F6
:1041E000006800680090049800684068009000989B
:1041F000FFE7FFE70498818DFEF7E0F903E00498FC
:10420000FEF7AAFCFFE700208DF8170007E000206A
:104210008DF8170003E002208DF81700FFE79DF8E6
:10422000170006B080BD000080B586B005900598E7
:104230000068006920F44050059A1168D268104364
:104240000861059988680B694A69C9691843104370
:104250000843049005980068C06849F20C618843DF
:104260000499084305990968C86005980068406981
:1042700020F44070059A11689269104348610598CE
:10428000006841F20001C4F20101884209D0FFE751
:104290000598006841F20041C4F20101884204D14E
:1042A000FFE7FCF77DFD039003E0FCF767FD03905B
:1042B000FFE70598C069B0F5004F29D1FFE70398E3
:1042C0001921A0FB0101059A1368029353685A0053
:1042D000DB0FFBF7E5FF0299864648F21F53C5F254
:1042E000EB13AEFB0320420910014FF0640C02FBFC
:1042F0001CEC322202EBCC02A2FB0332F82303EACD
:10430000521300EB4300C2F342121044886026E0CF
:1043100003981921A0FB0101059A136801935368C2
:104320009A009B0FFBF7BCFF0199844648F21F528D
:10433000C5F2EB12ACFB02304309642003FB10CC46
:10434000322000EB0C10A0FB0202F02000EA521019
:1043500000EB0310C2F3431210448860FFE706B07D
:1043600080BD000083B002900191ADF80220019859
:1043700002998862BDF8020002998885BDF80200A2
:104380000299C8850299002048640299222081F888
:1043900042000298006938B1FFE702980168C868D6
:1043A00040F48070C860FFE702980168486940F0F7
:1043B0000100486102980168C86840F02000C860A8
:1043C000002003B07047000083B00190019890F87E
:1043D000410021283AD1FFE701988068B0F5805F5D
:1043E00013D1FFE70198006978B9FFE70198006AE7
:1043F0000090009800886FF35F2001990968486079
:104400000199086A0230086208E0019A106A411CAA
:1044100011620078019909684860FFE70199C88C2A
:104420000138C884000468B9FFE701980168C868CA
:1044300020F08000C86001980168C86840F0400022
:10444000C860FFE700208DF80B0003E002208DF824
:104450000B00FFE79DF80B0003B0704780B540F2FA
:10446000DC30C2F20000FEF7BFF880BDFFE7FEE7D8
:1044700081B08DF803009DF9030000280ED4FFE7FA
:104480009DF9031001F01F02012090404A094EF2ED
:104490000011CEF2000141F82200FFE701B07047A1
:1044A0004EF60C50CEF200000068C0F302207047B8
:1044B00082B08DF8070000919DF9070000280AD40A
:1044C000FFE7009800019DF907104EF20042CEF27E
:1044D000000288540BE0009800019DF8071001F0DD
:1044E0000F014EF61452CEF200028854FFE702B0DC
:1044F0007047000083B00290029800F0070000901F
:104500004EF60C51CEF200010868019001984FF66A
:10451000FF02104001900198009A40EA0220002218
:10452000C0F2FA52104301900198086003B070473E
:1045300080B582B000200190FCF742FAFFF718FA2C
:10454000FEF714FBFEF7DEFBFEF71CFCFEF758FC43
:10455000FEF796FCFEF7D4FCFEF768FD00F060F86D
:10456000FFE700F001F8FCE780B586B040F20040BC
:10457000C4F202004FF48061FCF7E2F940F27401EA
:10458000C2F2000103910020049008611E220092F3
:104590004A6188614FF4FA700290FBF7FDFF0399BE
:1045A00004980861486188614FF47A700590FBF7C0
:1045B000F3FF009B0298039A049913615161916182
:1045C000FBF7EAFF039A0499059811615161916123
:1045D000FBF7E2FF0298039A049911616FF01D0343
:1045E000019353619161FBF7D7FF039A04990598F2
:1045F000116151619161FBF7CFFF019B0298039A12
:104600000499136151619161FBF7C6FF039A049904
:104610000598116151619161FBF7BEFF06B080BD45
:1046200080B540F29430C2F20000FDF7A7F840F2E6
:104630007400C2F20000FEF719FD80BD21F00042B7
:1046400001F00043A2F16052B2F5801F28BFD2F101
:104650007F6C0BD95FEA001C43EAC20242EB507048
:1046600018BF704728BF20F001007047B2F5801FC7
:10467000BCBF184670474FEA410C1CF5001F02D220
:10468000084600F0F5B870B500F020F80000008989
:10469000FFF7F6BF4FF00040A0F58000704710F024
:1046A000004248BF4042B0FA80F310FA03F10AD04A
:1046B000C3F11D0303F5806302EB03524FEA41503F
:1046C00002EBD12170474FF0000070470EF1020E4F
:1046D0002EF0030E5EF8046B364205D4012A43EB3C
:1046E000030515F5001F12D8012841EB010C1CF53C
:1046F000001F0CD80ED14FEAD17C0CEB4C0C0CF106
:10470000020C15F5001F08BF4CEBD37C04E04FF002
:10471000080C01E04FEAD37C0CEB4C0526FA05F6B9
:1047200006F00706B6F1040C06D20EEB860CBDE8C7
:1047300070404CF0010C6047DFE80CF0090B0202FE
:104740004FF00041A1F500214FF0000070BD194667
:104750001046012851EB010418BFD4F5001484BFA2
:10476000002001F0004170BD0808A0F500114FEADB
:104770003101704743004FEAD30C4FEA3C0C4340F1
:104780001FBF40070CF1605113F0FE4F70471CF043
:10479000006F03D10CF00041002070470CF0004383
:1047A00043EA507040EACC0010B500F00EF800BFAC
:1047B000000000924FEA0001FFF7D6BF4FF0004122
:1047C000A1F500214FF0000070470EF1020E2EF00F
:1047D000030E5EF8044B244204D44FEA4102B2F1C6
:1047E0007F4F11D84FEA4003B3F17F4F0CD80ED161
:1047F0004FEAD07C0CEB4C0C0CF1020CB2F17F4F69
:1048000008BF4CEBD17C04E04FF0080C01E04FEA0C
:10481000D17C0CEB4C0324FA03F404F00704B4F14C
:10482000040C06D20EEB840CBDE810404CF0010CD9
:104830006047DFE80CF0070802024FF00040A0F5E7
:10484000800010BD0846420018BFD2F1807288BFB8
:1048500000F0004010BDF1EE100A4FF6FF71C0F2FB
:10486000C03120EA010040F04070E1EE100A7047CC
:10487000FF2141EAD050C005704700000000000051
:1048800000000102030406070809000000000102FD
:1048900003040000B84800080000002010000000D9
:1048A000F8010008C848000810000020180A00009D
:1048B00018020008000000000024F40000007A4400
:0848C0000100000010000000DF
:040000050800019559
:00000001FF
